{
  "_format": "hh-sol-artifact-1",
  "contractName": "KnowledgeBase",
  "sourceName": "contracts/KnowledgeBase.sol",
  "abi": [
    {
      "anonymous": false,
      "inputs": [
        {
          "indexed": false,
          "internalType": "string",
          "name": "id",
          "type": "string"
        }
      ],
      "name": "ArticleArchived",
      "type": "event"
    },
    {
      "anonymous": false,
      "inputs": [
        {
          "indexed": false,
          "internalType": "string",
          "name": "id",
          "type": "string"
        },
        {
          "indexed": false,
          "internalType": "address",
          "name": "author",
          "type": "address"
        },
        {
          "indexed": false,
          "internalType": "string",
          "name": "title",
          "type": "string"
        }
      ],
      "name": "ArticleCreated",
      "type": "event"
    },
    {
      "anonymous": false,
      "inputs": [
        {
          "indexed": false,
          "internalType": "string",
          "name": "id",
          "type": "string"
        },
        {
          "indexed": false,
          "internalType": "address",
          "name": "editor",
          "type": "address"
        }
      ],
      "name": "ArticleEdited",
      "type": "event"
    },
    {
      "anonymous": false,
      "inputs": [
        {
          "indexed": false,
          "internalType": "string",
          "name": "id",
          "type": "string"
        }
      ],
      "name": "ArticleMarkedAnswer",
      "type": "event"
    },
    {
      "anonymous": false,
      "inputs": [
        {
          "indexed": false,
          "internalType": "string",
          "name": "id",
          "type": "string"
        },
        {
          "indexed": false,
          "internalType": "address",
          "name": "voter",
          "type": "address"
        },
        {
          "indexed": false,
          "internalType": "uint256",
          "name": "newUpvotes",
          "type": "uint256"
        }
      ],
      "name": "ArticleUpvoted",
      "type": "event"
    },
    {
      "inputs": [
        {
          "internalType": "string",
          "name": "_id",
          "type": "string"
        }
      ],
      "name": "archiveArticle",
      "outputs": [],
      "stateMutability": "nonpayable",
      "type": "function"
    },
    {
      "inputs": [
        {
          "internalType": "uint256",
          "name": "",
          "type": "uint256"
        }
      ],
      "name": "articleIds",
      "outputs": [
        {
          "internalType": "string",
          "name": "",
          "type": "string"
        }
      ],
      "stateMutability": "view",
      "type": "function"
    },
    {
      "inputs": [
        {
          "internalType": "string",
          "name": "",
          "type": "string"
        }
      ],
      "name": "articles",
      "outputs": [
        {
          "internalType": "string",
          "name": "id",
          "type": "string"
        },
        {
          "internalType": "address",
          "name": "author",
          "type": "address"
        },
        {
          "internalType": "string",
          "name": "title",
          "type": "string"
        },
        {
          "internalType": "string",
          "name": "content",
          "type": "string"
        },
        {
          "internalType": "string",
          "name": "category",
          "type": "string"
        },
        {
          "internalType": "string",
          "name": "tags",
          "type": "string"
        },
        {
          "internalType": "uint256",
          "name": "upvotes",
          "type": "uint256"
        },
        {
          "internalType": "bool",
          "name": "isAnswer",
          "type": "bool"
        },
        {
          "internalType": "bool",
          "name": "isArchived",
          "type": "bool"
        }
      ],
      "stateMutability": "view",
      "type": "function"
    },
    {
      "inputs": [
        {
          "internalType": "string",
          "name": "_id",
          "type": "string"
        },
        {
          "internalType": "string",
          "name": "_title",
          "type": "string"
        },
        {
          "internalType": "string",
          "name": "_content",
          "type": "string"
        },
        {
          "internalType": "string",
          "name": "_category",
          "type": "string"
        },
        {
          "internalType": "string",
          "name": "_tags",
          "type": "string"
        }
      ],
      "name": "createArticle",
      "outputs": [],
      "stateMutability": "nonpayable",
      "type": "function"
    },
    {
      "inputs": [
        {
          "internalType": "string",
          "name": "_id",
          "type": "string"
        },
        {
          "internalType": "string",
          "name": "_newContent",
          "type": "string"
        }
      ],
      "name": "editArticle",
      "outputs": [],
      "stateMutability": "nonpayable",
      "type": "function"
    },
    {
      "inputs": [
        {
          "internalType": "string",
          "name": "_id",
          "type": "string"
        }
      ],
      "name": "getArticle",
      "outputs": [
        {
          "components": [
            {
              "internalType": "string",
              "name": "id",
              "type": "string"
            },
            {
              "internalType": "address",
              "name": "author",
              "type": "address"
            },
            {
              "internalType": "string",
              "name": "title",
              "type": "string"
            },
            {
              "internalType": "string",
              "name": "content",
              "type": "string"
            },
            {
              "internalType": "string",
              "name": "category",
              "type": "string"
            },
            {
              "internalType": "string",
              "name": "tags",
              "type": "string"
            },
            {
              "internalType": "uint256",
              "name": "upvotes",
              "type": "uint256"
            },
            {
              "internalType": "bool",
              "name": "isAnswer",
              "type": "bool"
            },
            {
              "internalType": "bool",
              "name": "isArchived",
              "type": "bool"
            }
          ],
          "internalType": "struct KnowledgeBase.Article",
          "name": "",
          "type": "tuple"
        }
      ],
      "stateMutability": "view",
      "type": "function"
    },
    {
      "inputs": [],
      "name": "getArticleCount",
      "outputs": [
        {
          "internalType": "uint256",
          "name": "",
          "type": "uint256"
        }
      ],
      "stateMutability": "view",
      "type": "function"
    },
    {
      "inputs": [],
      "name": "listArticles",
      "outputs": [
        {
          "components": [
            {
              "internalType": "string",
              "name": "id",
              "type": "string"
            },
            {
              "internalType": "address",
              "name": "author",
              "type": "address"
            },
            {
              "internalType": "string",
              "name": "title",
              "type": "string"
            },
            {
              "internalType": "string",
              "name": "content",
              "type": "string"
            },
            {
              "internalType": "string",
              "name": "category",
              "type": "string"
            },
            {
              "internalType": "string",
              "name": "tags",
              "type": "string"
            },
            {
              "internalType": "uint256",
              "name": "upvotes",
              "type": "uint256"
            },
            {
              "internalType": "bool",
              "name": "isAnswer",
              "type": "bool"
            },
            {
              "internalType": "bool",
              "name": "isArchived",
              "type": "bool"
            }
          ],
          "internalType": "struct KnowledgeBase.Article[]",
          "name": "",
          "type": "tuple[]"
        }
      ],
      "stateMutability": "view",
      "type": "function"
    },
    {
      "inputs": [
        {
          "internalType": "string",
          "name": "_id",
          "type": "string"
        }
      ],
      "name": "markAnswer",
      "outputs": [],
      "stateMutability": "nonpayable",
      "type": "function"
    },
    {
      "inputs": [
        {
          "internalType": "string",
          "name": "_id",
          "type": "string"
        }
      ],
      "name": "upvoteArticle",
      "outputs": [],
      "stateMutability": "nonpayable",
      "type": "function"
    }
  ],
  "bytecode": "0x608060405234801561001057600080fd5b506128a4806100206000396000f3fe608060405234801561001057600080fd5b506004361061009e5760003560e01c8063a466666511610066578063a466666514610161578063dd12345a14610191578063e899d5ff146101ad578063f5af8ad0146101cb578063fda00cd6146101e75761009e565b80632de6f5b5146100a3578063452bee17146100d35780635aa1bd42146100f15780637c702b8d1461010d57806391197c2414610145575b600080fd5b6100bd60048036038101906100b891906118f1565b610203565b6040516100ca91906119ae565b60405180910390f35b6100db6102af565b6040516100e89190611c28565b60405180910390f35b61010b60048036038101906101069190611d7f565b610708565b005b61012760048036038101906101229190611d7f565b6108bf565b60405161013c99989796959493929190611df5565b60405180910390f35b61015f600480360381019061015a9190611d7f565b610c05565b005b61017b60048036038101906101769190611d7f565b610dd8565b6040516101889190611f86565b60405180910390f35b6101ab60048036038101906101a69190611d7f565b611231565b005b6101b5611404565b6040516101c29190611fa8565b60405180910390f35b6101e560048036038101906101e09190611fc3565b611411565b005b61020160048036038101906101fc91906120ca565b6116b6565b005b6001818154811061021357600080fd5b90600052602060002001600091509050805461022e90612171565b80601f016020809104026020016040519081016040528092919081815260200182805461025a90612171565b80156102a75780601f1061027c576101008083540402835291602001916102a7565b820191906000526020600020905b81548152906001019060200180831161028a57829003601f168201915b505050505081565b6060600060018054905067ffffffffffffffff8111156102d2576102d1611c54565b5b60405190808252806020026020018201604052801561030b57816020015b6102f8611841565b8152602001906001900390816102f05790505b50905060005b60018054905081101561070057600060018281548110610334576103336121a2565b5b9060005260206000200160405161034b9190612274565b90815260200160405180910390206040518061012001604052908160008201805461037590612171565b80601f01602080910402602001604051908101604052809291908181526020018280546103a190612171565b80156103ee5780601f106103c3576101008083540402835291602001916103ee565b820191906000526020600020905b8154815290600101906020018083116103d157829003601f168201915b505050505081526020016001820160009054906101000a900473ffffffffffffffffffffffffffffffffffffffff1673ffffffffffffffffffffffffffffffffffffffff1673ffffffffffffffffffffffffffffffffffffffff16815260200160028201805461045d90612171565b80601f016020809104026020016040519081016040528092919081815260200182805461048990612171565b80156104d65780601f106104ab576101008083540402835291602001916104d6565b820191906000526020600020905b8154815290600101906020018083116104b957829003601f168201915b505050505081526020016003820180546104ef90612171565b80601f016020809104026020016040519081016040528092919081815260200182805461051b90612171565b80156105685780601f1061053d57610100808354040283529160200191610568565b820191906000526020600020905b81548152906001019060200180831161054b57829003601f168201915b5050505050815260200160048201805461058190612171565b80601f01602080910402602001604051908101604052809291908181526020018280546105ad90612171565b80156105fa5780601f106105cf576101008083540402835291602001916105fa565b820191906000526020600020905b8154815290600101906020018083116105dd57829003601f168201915b5050505050815260200160058201805461061390612171565b80601f016020809104026020016040519081016040528092919081815260200182805461063f90612171565b801561068c5780601f106106615761010080835404028352916020019161068c565b820191906000526020600020905b81548152906001019060200180831161066f57829003601f168201915b50505050508152602001600682015481526020016007820160009054906101000a900460ff161515151581526020016007820160019054906101000a900460ff1615151515815250508282815181106106e8576106e76121a2565b5b60200260200101819052508080600101915050610311565b508091505090565b600073ffffffffffffffffffffffffffffffffffffffff1660008260405161073091906122bc565b908152602001604051809103902060010160009054906101000a900473ffffffffffffffffffffffffffffffffffffffff1673ffffffffffffffffffffffffffffffffffffffff16036107b8576040517f08c379a00000000000000000000000000000000000000000000000000000000081526004016107af9061231f565b60405180910390fd5b6000816040516107c891906122bc565b908152602001604051809103902060070160019054906101000a900460ff1615610827576040517f08c379a000000000000000000000000000000000000000000000000000000000815260040161081e9061238b565b60405180910390fd5b600160008260405161083991906122bc565b9081526020016040518091039020600601600082825461085991906123da565b925050819055507f99e5a3229d46ea5348d2f4e15d8be0ae10e25e5d5c5669da1947aea3d3d5cfb8813360008460405161089391906122bc565b9081526020016040518091039020600601546040516108b49392919061240e565b60405180910390a150565b6000818051602081018201805184825260208301602085012081835280955050505050506000915090508060000180546108f890612171565b80601f016020809104026020016040519081016040528092919081815260200182805461092490612171565b80156109715780601f1061094657610100808354040283529160200191610971565b820191906000526020600020905b81548152906001019060200180831161095457829003601f168201915b5050505050908060010160009054906101000a900473ffffffffffffffffffffffffffffffffffffffff16908060020180546109ac90612171565b80601f01602080910402602001604051908101604052809291908181526020018280546109d890612171565b8015610a255780601f106109fa57610100808354040283529160200191610a25565b820191906000526020600020905b815481529060010190602001808311610a0857829003601f168201915b505050505090806003018054610a3a90612171565b80601f0160208091040260200160405190810160405280929190818152602001828054610a6690612171565b8015610ab35780601f10610a8857610100808354040283529160200191610ab3565b820191906000526020600020905b815481529060010190602001808311610a9657829003601f168201915b505050505090806004018054610ac890612171565b80601f0160208091040260200160405190810160405280929190818152602001828054610af490612171565b8015610b415780601f10610b1657610100808354040283529160200191610b41565b820191906000526020600020905b815481529060010190602001808311610b2457829003601f168201915b505050505090806005018054610b5690612171565b80601f0160208091040260200160405190810160405280929190818152602001828054610b8290612171565b8015610bcf5780601f10610ba457610100808354040283529160200191610bcf565b820191906000526020600020905b815481529060010190602001808311610bb257829003601f168201915b5050505050908060060154908060070160009054906101000a900460ff16908060070160019054906101000a900460ff16905089565b600073ffffffffffffffffffffffffffffffffffffffff16600082604051610c2d91906122bc565b908152602001604051809103902060010160009054906101000a900473ffffffffffffffffffffffffffffffffffffffff1673ffffffffffffffffffffffffffffffffffffffff1603610cb5576040517f08c379a0000000000000000000000000000000000000000000000000000000008152600401610cac9061231f565b60405180910390fd5b3373ffffffffffffffffffffffffffffffffffffffff16600082604051610cdc91906122bc565b908152602001604051809103902060010160009054906101000a900473ffffffffffffffffffffffffffffffffffffffff1673ffffffffffffffffffffffffffffffffffffffff1614610d64576040517f08c379a0000000000000000000000000000000000000000000000000000000008152600401610d5b90612498565b60405180910390fd5b6001600082604051610d7691906122bc565b908152602001604051809103902060070160006101000a81548160ff0219169083151502179055507f95ece5daec35f9c80282299adc0fc29bce839b3f6b120a3cff07ca24dfb434eb81604051610dcd91906119ae565b60405180910390a150565b610de0611841565b600073ffffffffffffffffffffffffffffffffffffffff16600083604051610e0891906122bc565b908152602001604051809103902060010160009054906101000a900473ffffffffffffffffffffffffffffffffffffffff1673ffffffffffffffffffffffffffffffffffffffff1603610e90576040517f08c379a0000000000000000000000000000000000000000000000000000000008152600401610e879061231f565b60405180910390fd5b600082604051610ea091906122bc565b908152602001604051809103902060405180610120016040529081600082018054610eca90612171565b80601f0160208091040260200160405190810160405280929190818152602001828054610ef690612171565b8015610f435780601f10610f1857610100808354040283529160200191610f43565b820191906000526020600020905b815481529060010190602001808311610f2657829003601f168201915b505050505081526020016001820160009054906101000a900473ffffffffffffffffffffffffffffffffffffffff1673ffffffffffffffffffffffffffffffffffffffff1673ffffffffffffffffffffffffffffffffffffffff168152602001600282018054610fb290612171565b80601f0160208091040260200160405190810160405280929190818152602001828054610fde90612171565b801561102b5780601f106110005761010080835404028352916020019161102b565b820191906000526020600020905b81548152906001019060200180831161100e57829003601f168201915b5050505050815260200160038201805461104490612171565b80601f016020809104026020016040519081016040528092919081815260200182805461107090612171565b80156110bd5780601f10611092576101008083540402835291602001916110bd565b820191906000526020600020905b8154815290600101906020018083116110a057829003601f168201915b505050505081526020016004820180546110d690612171565b80601f016020809104026020016040519081016040528092919081815260200182805461110290612171565b801561114f5780601f106111245761010080835404028352916020019161114f565b820191906000526020600020905b81548152906001019060200180831161113257829003601f168201915b5050505050815260200160058201805461116890612171565b80601f016020809104026020016040519081016040528092919081815260200182805461119490612171565b80156111e15780601f106111b6576101008083540402835291602001916111e1565b820191906000526020600020905b8154815290600101906020018083116111c457829003601f168201915b50505050508152602001600682015481526020016007820160009054906101000a900460ff161515151581526020016007820160019054906101000a900460ff1615151515815250509050919050565b600073ffffffffffffffffffffffffffffffffffffffff1660008260405161125991906122bc565b908152602001604051809103902060010160009054906101000a900473ffffffffffffffffffffffffffffffffffffffff1673ffffffffffffffffffffffffffffffffffffffff16036112e1576040517f08c379a00000000000000000000000000000000000000000000000000000000081526004016112d89061231f565b60405180910390fd5b3373ffffffffffffffffffffffffffffffffffffffff1660008260405161130891906122bc565b908152602001604051809103902060010160009054906101000a900473ffffffffffffffffffffffffffffffffffffffff1673ffffffffffffffffffffffffffffffffffffffff1614611390576040517f08c379a000000000000000000000000000000000000000000000000000000000815260040161138790612504565b60405180910390fd5b60016000826040516113a291906122bc565b908152602001604051809103902060070160016101000a81548160ff0219169083151502179055507f9b6de8d62cb69ad74429488cc2406417d66b29a9a6f1a463fe7e758ac713ef7d816040516113f991906119ae565b60405180910390a150565b6000600180549050905090565b600073ffffffffffffffffffffffffffffffffffffffff1660008660405161143991906122bc565b908152602001604051809103902060010160009054906101000a900473ffffffffffffffffffffffffffffffffffffffff1673ffffffffffffffffffffffffffffffffffffffff16146114c1576040517f08c379a00000000000000000000000000000000000000000000000000000000081526004016114b890612570565b60405180910390fd5b6040518061012001604052808681526020013373ffffffffffffffffffffffffffffffffffffffff168152602001858152602001848152602001838152602001828152602001600081526020016000151581526020016000151581525060008660405161152e91906122bc565b908152602001604051809103902060008201518160000190816115519190612727565b5060208201518160010160006101000a81548173ffffffffffffffffffffffffffffffffffffffff021916908373ffffffffffffffffffffffffffffffffffffffff16021790555060408201518160020190816115ae9190612727565b5060608201518160030190816115c49190612727565b5060808201518160040190816115da9190612727565b5060a08201518160050190816115f09190612727565b5060c0820151816006015560e08201518160070160006101000a81548160ff0219169083151502179055506101008201518160070160016101000a81548160ff0219169083151502179055509050506001859080600181540180825580915050600190039060005260206000200160009091909190915090816116739190612727565b507f2ebe46202b90945c0c9d0115ebea1f71f3515aeac724c975ac567c587ac34a998533866040516116a7939291906127f9565b60405180910390a15050505050565b600073ffffffffffffffffffffffffffffffffffffffff166000836040516116de91906122bc565b908152602001604051809103902060010160009054906101000a900473ffffffffffffffffffffffffffffffffffffffff1673ffffffffffffffffffffffffffffffffffffffff1603611766576040517f08c379a000000000000000000000000000000000000000000000000000000000815260040161175d9061231f565b60405180910390fd5b60008260405161177691906122bc565b908152602001604051809103902060070160019054906101000a900460ff16156117d5576040517f08c379a00000000000000000000000000000000000000000000000000000000081526004016117cc9061238b565b60405180910390fd5b806000836040516117e691906122bc565b908152602001604051809103902060030190816118039190612727565b507fee1ccd2fa0aeb64fd8a519313249c470d3ce91a3c15b8484fa1540e362f9bdcc823360405161183592919061283e565b60405180910390a15050565b60405180610120016040528060608152602001600073ffffffffffffffffffffffffffffffffffffffff16815260200160608152602001606081526020016060815260200160608152602001600081526020016000151581526020016000151581525090565b6000604051905090565b600080fd5b600080fd5b6000819050919050565b6118ce816118bb565b81146118d957600080fd5b50565b6000813590506118eb816118c5565b92915050565b600060208284031215611907576119066118b1565b5b6000611915848285016118dc565b91505092915050565b600081519050919050565b600082825260208201905092915050565b60005b8381101561195857808201518184015260208101905061193d565b60008484015250505050565b6000601f19601f8301169050919050565b60006119808261191e565b61198a8185611929565b935061199a81856020860161193a565b6119a381611964565b840191505092915050565b600060208201905081810360008301526119c88184611975565b905092915050565b600081519050919050565b600082825260208201905092915050565b6000819050602082019050919050565b600082825260208201905092915050565b6000611a188261191e565b611a2281856119fc565b9350611a3281856020860161193a565b611a3b81611964565b840191505092915050565b600073ffffffffffffffffffffffffffffffffffffffff82169050919050565b6000611a7182611a46565b9050919050565b611a8181611a66565b82525050565b611a90816118bb565b82525050565b60008115159050919050565b611aab81611a96565b82525050565b6000610120830160008301518482036000860152611acf8282611a0d565b9150506020830151611ae46020860182611a78565b5060408301518482036040860152611afc8282611a0d565b91505060608301518482036060860152611b168282611a0d565b91505060808301518482036080860152611b308282611a0d565b91505060a083015184820360a0860152611b4a8282611a0d565b91505060c0830151611b5f60c0860182611a87565b5060e0830151611b7260e0860182611aa2565b50610100830151611b87610100860182611aa2565b508091505092915050565b6000611b9e8383611ab1565b905092915050565b6000602082019050919050565b6000611bbe826119d0565b611bc881856119db565b935083602082028501611bda856119ec565b8060005b85811015611c165784840389528151611bf78582611b92565b9450611c0283611ba6565b925060208a01995050600181019050611bde565b50829750879550505050505092915050565b60006020820190508181036000830152611c428184611bb3565b905092915050565b600080fd5b600080fd5b7f4e487b7100000000000000000000000000000000000000000000000000000000600052604160045260246000fd5b611c8c82611964565b810181811067ffffffffffffffff82111715611cab57611caa611c54565b5b80604052505050565b6000611cbe6118a7565b9050611cca8282611c83565b919050565b600067ffffffffffffffff821115611cea57611ce9611c54565b5b611cf382611964565b9050602081019050919050565b82818337600083830152505050565b6000611d22611d1d84611ccf565b611cb4565b905082815260208101848484011115611d3e57611d3d611c4f565b5b611d49848285611d00565b509392505050565b600082601f830112611d6657611d65611c4a565b5b8135611d76848260208601611d0f565b91505092915050565b600060208284031215611d9557611d946118b1565b5b600082013567ffffffffffffffff811115611db357611db26118b6565b5b611dbf84828501611d51565b91505092915050565b611dd181611a66565b82525050565b611de0816118bb565b82525050565b611def81611a96565b82525050565b6000610120820190508181036000830152611e10818c611975565b9050611e1f602083018b611dc8565b8181036040830152611e31818a611975565b90508181036060830152611e458189611975565b90508181036080830152611e598188611975565b905081810360a0830152611e6d8187611975565b9050611e7c60c0830186611dd7565b611e8960e0830185611de6565b611e97610100830184611de6565b9a9950505050505050505050565b6000610120830160008301518482036000860152611ec38282611a0d565b9150506020830151611ed86020860182611a78565b5060408301518482036040860152611ef08282611a0d565b91505060608301518482036060860152611f0a8282611a0d565b91505060808301518482036080860152611f248282611a0d565b91505060a083015184820360a0860152611f3e8282611a0d565b91505060c0830151611f5360c0860182611a87565b5060e0830151611f6660e0860182611aa2565b50610100830151611f7b610100860182611aa2565b508091505092915050565b60006020820190508181036000830152611fa08184611ea5565b905092915050565b6000602082019050611fbd6000830184611dd7565b92915050565b600080600080600060a08688031215611fdf57611fde6118b1565b5b600086013567ffffffffffffffff811115611ffd57611ffc6118b6565b5b61200988828901611d51565b955050602086013567ffffffffffffffff81111561202a576120296118b6565b5b61203688828901611d51565b945050604086013567ffffffffffffffff811115612057576120566118b6565b5b61206388828901611d51565b935050606086013567ffffffffffffffff811115612084576120836118b6565b5b61209088828901611d51565b925050608086013567ffffffffffffffff8111156120b1576120b06118b6565b5b6120bd88828901611d51565b9150509295509295909350565b600080604083850312156120e1576120e06118b1565b5b600083013567ffffffffffffffff8111156120ff576120fe6118b6565b5b61210b85828601611d51565b925050602083013567ffffffffffffffff81111561212c5761212b6118b6565b5b61213885828601611d51565b9150509250929050565b7f4e487b7100000000000000000000000000000000000000000000000000000000600052602260045260246000fd5b6000600282049050600182168061218957607f821691505b60208210810361219c5761219b612142565b5b50919050565b7f4e487b7100000000000000000000000000000000000000000000000000000000600052603260045260246000fd5b600081905092915050565b60008190508160005260206000209050919050565b600081546121fe81612171565b61220881866121d1565b9450600182166000811461222357600181146122385761226b565b60ff198316865281151582028601935061226b565b612241856121dc565b60005b8381101561226357815481890152600182019150602081019050612244565b838801955050505b50505092915050565b600061228082846121f1565b915081905092915050565b60006122968261191e565b6122a081856121d1565b93506122b081856020860161193a565b80840191505092915050565b60006122c8828461228b565b915081905092915050565b7f41727469636c6520646f6573206e6f7420657869737400000000000000000000600082015250565b6000612309601683611929565b9150612314826122d3565b602082019050919050565b60006020820190508181036000830152612338816122fc565b9050919050565b7f41727469636c6520697320617263686976656400000000000000000000000000600082015250565b6000612375601383611929565b91506123808261233f565b602082019050919050565b600060208201905081810360008301526123a481612368565b9050919050565b7f4e487b7100000000000000000000000000000000000000000000000000000000600052601160045260246000fd5b60006123e5826118bb565b91506123f0836118bb565b9250828201905080821115612408576124076123ab565b5b92915050565b600060608201905081810360008301526124288186611975565b90506124376020830185611dc8565b6124446040830184611dd7565b949350505050565b7f4f6e6c7920617574686f722063616e206d61726b20617320616e737765720000600082015250565b6000612482601e83611929565b915061248d8261244c565b602082019050919050565b600060208201905081810360008301526124b181612475565b9050919050565b7f4f6e6c7920617574686f722063616e2061726368697665000000000000000000600082015250565b60006124ee601783611929565b91506124f9826124b8565b602082019050919050565b6000602082019050818103600083015261251d816124e1565b9050919050565b7f41727469636c6520494420616c72656164792065786973747300000000000000600082015250565b600061255a601983611929565b915061256582612524565b602082019050919050565b600060208201905081810360008301526125898161254d565b9050919050565b60006020601f8301049050919050565b600082821b905092915050565b6000600883026125dd7fffffffffffffffffffffffffffffffffffffffffffffffffffffffffffffffff826125a0565b6125e786836125a0565b95508019841693508086168417925050509392505050565b6000819050919050565b600061262461261f61261a846118bb565b6125ff565b6118bb565b9050919050565b6000819050919050565b61263e83612609565b61265261264a8261262b565b8484546125ad565b825550505050565b600090565b61266761265a565b612672818484612635565b505050565b5b818110156126965761268b60008261265f565b600181019050612678565b5050565b601f8211156126db576126ac816121dc565b6126b584612590565b810160208510156126c4578190505b6126d86126d085612590565b830182612677565b50505b505050565b600082821c905092915050565b60006126fe600019846008026126e0565b1980831691505092915050565b600061271783836126ed565b9150826002028217905092915050565b6127308261191e565b67ffffffffffffffff81111561274957612748611c54565b5b6127538254612171565b61275e82828561269a565b600060209050601f831160018114612791576000841561277f578287015190505b612789858261270b565b8655506127f1565b601f19841661279f866121dc565b60005b828110156127c7578489015182556001820191506020850194506020810190506127a2565b868310156127e457848901516127e0601f8916826126ed565b8355505b6001600288020188555050505b505050505050565b600060608201905081810360008301526128138186611975565b90506128226020830185611dc8565b81810360408301526128348184611975565b9050949350505050565b600060408201905081810360008301526128588185611975565b90506128676020830184611dc8565b939250505056fea26469706673582212205ec46f869b50231ba154ef94e5a6af1af7eb38a5c4a83954fc32c56440f97a9764736f6c63430008180033",
  "linkReferences": {},
  "deployedLinkReferences": {}
}